:020000040800F2
:1000000070070020A1010008A9010008AB01000849
:10001000AD010008AF010008B101000800000000B8
:10002000000000000000000000000000B301000814
:10003000B501000800000000B7010008B901000880
:10004000BB010008BB010008BB010008BB010008A0
:10005000BB010008BB010008BB010008BB01000890
:10006000BB010008BB010008BB010008BB01000880
:10007000BB010008BB010008BB010008BB01000870
:10008000BB010008BB010008BB010008BB01000860
:10009000BB010008BB010008BB010008BB01000850
:1000A000BB010008BB010008BB010008BB01000840
:1000B000BB010008BB010008BB010008BB01000830
:1000C000BB010008BB010008BB010008BB01000820
:1000D000BB010008BB010008BB010008BB01000810
:1000E000BB010008BB010008BB01000800F002F8DA
:1000F00000F047F80AA090E8000C82448344AAF17B
:100100000107DA4501D100F03CF8AFF2090EBAE878
:100110000F0013F0010F18BFFB1A43F0010318473B
:100120003412000054120000103A24BF78C878C17D
:10013000FAD8520724BF30C830C144BF04680C60ED
:10014000704700000023002400250026103A28BF35
:1001500078C1FBD8520728BF30C148BF0B60704739
:10016000642900F07D80002070471FB59DE80300E2
:1001700000F01CFD00F03CFA1FBD10B500F0A1FA24
:1001800010BD00F004FB1146FFF7EFFF01F084F80B
:1001900000F0B2FC03B4FFF7F0FF03BC00F0F8FD81
:1001A0000948804709480047FEE7FEE7FEE7FEE70B
:1001B000FEE7FEE7FEE7FEE7FEE7FEE70448054947
:1001C000054A064B7047000041120008ED00000888
:1001D00070010020700700207003002070030020D1
:1001E0000FB4044910B503AA029800F0E7F810BC58
:1001F0005DF814FB640000202DE9F0410E46044632
:10020000002020622046E168884730B3252805D0C9
:10021000D4E901219047206A401CF2E7E1682046BA
:1002200000278847050018D0A5F14100192802D8F9
:1002300020354FF400673246294620462760FFF7F5
:100240008FFF40B1012804D0F61D26F007060836BE
:10025000D8E7361DD6E72846DAE7206ABDE8F08100
:100260002DE9F0410646002410687529314616A58F
:1002700010D0AFF30080002802DA404213A507E057
:1002800031688A0701D512A502E0490704D511A5F6
:10029000012401E0AFF3008000210A2206F12407C7
:1002A00009E0B0FBF2FCB0FBF2F302FB1C003030C3
:1002B00078541846491C0028F3D123462A46304674
:1002C000BDE8F04100F021B8000000002D00000062
:1002D0002B0000002000000010B5044603E001F0F0
:1002E00005F8401C09D014F8010B05490028F6D187
:1002F000BDE810400A2000F0F9BF4FF0FF3010BDFC
:10030000640000207047704770472DE9F0470D46A4
:1003100099469246044600F124080168880604D5EF
:10032000E06921F01001216000E00120A84201DD18
:10033000471B00E00027A1697A1902EB0900081A9F
:10034000A0612078C00602D42046AFF300800026CA
:1003500008E0D4E901211AF806009047206A401C01
:10036000761C20624E45F4DB2078C0060AD5204674
:10037000AFF3008006E0D4E9012130209047206AE5
:10038000401C2062381EA7F10107F4DC07E0D4E925
:10039000012118F805009047206A401C2062281EA1
:1003A000A5F10105F3DC2046AFF3008020780006BC
:1003B00002D50220BDE8F0870120FBE7074B70B5AE
:1003C0000D467B4400F011F80446284600F020F862
:1003D00010B14FF0FF3070BD204670BD270F0000F8
:1003E00001694A1C02610878704700B58FB0CDE9F9
:1003F00001310021059105497944CDE903101146E9
:100400006846FFF7F9FE0FB000BD0000E5FFFFFFF3
:10041000007B00F0800070472DE9F04705460C4650
:10042000C86820F4201040F48000C860800602D51F
:10043000084600F0A2FAE06841F282014FF0FF396D
:100440000140022903D0204600F040FAB5E000F454
:100450002041B1F5004F0FD1C00306D56168E06AB5
:10046000884200D80846606006E02069E06260606B
:10047000606900F086F9A061A0680022EEB2002851
:100480000DDAE1688B050AD4C043A06041F49030D6
:100490002260E0606068411C61600670A5E0E06871
:1004A0009046226040F40050E060206968BB6069BB
:1004B00000F059F9012704F12405A0B1A08910F436
:1004C000407F08D0E06900F087F9206118B1E0684A
:1004D00040F4006016E0E7612561E06820F44070B8
:1004E00040F480600EE0E06900F076F900282061B9
:1004F000F1D0E06840F4006010F4407FE06002D189
:1005000040F48070E06020696060E06825696FF009
:10051000010AC1051FD56168E06A884200D8084613
:10052000411B04D02246284600F0DAF9F0BBE0680F
:10053000010203D5E562C4E9015854E0691CE16297
:100540006160E16940F48030491EC4E90210304620
:100550002E70BDE8F087010202D500F480320AE077
:100560006068411C61600670E0680A2E40F48030CB
:10057000E06006D00022E16A6068814203D90B4640
:1005800002E00122F7E70346A7895B1B7F0503D43E
:10059000E7699F4200DDE2B1814200D80146E56291
:1005A0000F1AC4E90158002B09DD00E005E02246DE
:1005B0001946284600F094F908B14846C9E747B102
:1005C000A069E5626560C01BA061E06840F01000B2
:1005D000E060E068000208D56168A069E562491B37
:1005E00008446560A0615046B3E73046B1E70000BB
:1005F00010B54248542100F08FFA4148542100F0D0
:100600008BFA4048542100F087FA3F493B483C4A66
:100610003F4B08603D490A603A491960531C036525
:10062000481C1065012008653B48344A39A17844CC
:1006300000F0C4F920B9384878440A3800F065FA67
:1006400037482F4A35A1784400F0B8F920B934482A
:1006500078440A3800F059FA32482A4A2FA17844DF
:1006600000F0ACF920B92F4878440A3800F04DFA70
:1006700040232248DC000021224600F003F920B18B
:1006800025487844543800F040FA1D48224640235B
:10069000002100F0F7F820B121487844543800F0E8
:1006A00034FA184822461023002100F0EBF8002805
:1006B00006D01C487844BDE81040563800F025BAF2
:1006C00010BD104870B5006D20F001040B4800F01B
:1006D000EDF90B4800F0EAF90A4800F0E7F909E003
:1006E000206D20F00105204600F0E0F9204600F0E2
:1006F000A2F82C46002CF3D170BD000010000020A1
:1007000064000020B8000020000000200400002049
:100710000800002072000000D40C000077000000E8
:10072000C00C0000AC0C00000EB5CDE9000100F0DB
:100730000FFB029069460120ABBE0EBD08B56946AD
:1007400000900220ABBE08BD1FB58DE807006946CA
:100750000520ABBE04B010BD1FB58DE80F00694683
:100760000620ABBEF6E708B5694600900920ABBE8F
:1007700008BD1CB5CDE9000169460A20ABBE1CBD11
:10078000704708B5694600900C20ABBE08BD7546A1
:1007900000F0EAF9AE4605006946534620F007002E
:1007A000854618B020B5FFF709FDBDE820404FF0A1
:1007B00000064FF000074FF000084FF0000BAC466A
:1007C000ACE8C009ACE8C009ACE8C009ACE8C009B5
:1007D00021F007018D46704770B5064600F0CAF952
:1007E000056806F10B0020F00704B4429CBF00200E
:1007F00070BD2B466A68BAB11068A04210D304F1EC
:10080000080188423CBF5068586007D351681019EE
:1008100041601168091B016058601460101D70BDB3
:1008200013465268002AE7D12146284600F0AAF96B
:100830000028DED170BD70B50446051F00F09AF99E
:100840000068002C14BF446870BD002C18BFAC4277
:100850003CBF20466468F8D301680A18AA4218BF52
:10086000456003D12A680546114401602868411992
:10087000A1421CBF6C6070BD61686960216808445A
:10088000286070BD70B5C468A50713D0650211D487
:10089000B2F5807F09D0B2F5007F06D0B2F5806F47
:1008A00008D1012300F1240106E05D1E6FF07F46B0
:1008B000B54201D3012070BD0161C361416024F4E0
:1008C00070611143C160002070BD0000C16821F457
:1008D000001141F08001C16000218160016070471A
:1008E0002DE9F047814614460E464FF0FF38324856
:1008F000D5685769054209D03846A169FFF739FF25
:10090000002811DB2C48C0430540E5602B463246E9
:1009100049463846FFF718FFA16920F00042B21A95
:1009200011440028A16103D02046FFF7CFFF4046C5
:10093000BDE8F08770B504460569C06A6168884201
:1009400000D80846E16821F42011E160C90312D5FE
:10095000A84208D02246411B2846FFF7C1FF10B12C
:100960004FF0FF3070BD0020E562C4E90150E0683F
:1009700020F48030E060002070BD10B50446C068EF
:1009800020F02000E060A16AA06988420DD02046D6
:10099000FFF7D0FFE06820F4405040F01000E06026
:1009A000A06AA0612069E062606044F24001E068F2
:1009B0008843E06010BD0000100002002DE9F04106
:1009C0000C461646070047D0104600F06FF8207816
:1009D000611C61280AD0722802D077283CD102E03D
:1009E0000125002405E00225042402E0082448F241
:1009F000020511F8010B2B2806D0622809D011F846
:100A0000010C74280AD00BE045F0030544F0020401
:100A1000EFE745F0040544F00104EAE744F0100470
:100A200038462146FFF780FE411C15D00021316178
:100A300071604FF40071F560F1617061200704D5B9
:100A400030460222002100F0E7F8306D40F001004E
:100A500030653046BDE8F0810020FBE72DE9F0412C
:100A60000D460646104C206DC10704D0410804D045
:100A700020F00104F7E722460EE05420FFF7ACFE19
:100A800007000ED0206D47F0010108435421206576
:100A9000384600F041F83A4629463046BDE8F04174
:100AA0008CE70020D6E70000100000202DE9F04779
:100AB00004464FF000094FF0FF37C568D4E90486BB
:100AC000A80707D02046FFF735FF3046FFF736FE70
:100AD000002802DA3846BDE8F087280502D54046EE
:100AE000FFF7A9FE4C21204600F016F8206D20F0FB
:100AF000010020654846EEE710B50446AFF30080DC
:100B00002046BDE81040FFF745BB10B500F006F9E0
:100B1000BDE8104000F0FCB84FF0000200B51346ED
:100B200094469646203922BFA0E80C50A0E80C500D
:100B3000B1F12001BFF4F7AF090728BFA0E80C50BE
:100B400048BF0CC05DF804EB890028BF40F8042BB7
:100B500008BF704748BF20F8022B11F0804F18BF24
:100B600000F8012B70470000004870470C0100207E
:100B7000704700000048704714010020704770471C
:100B80007047704738B504460A4600206946AFF3FF
:100B90000080002808BF38BD02460099204600F0BA
:100BA000FDF8012038BD012000F04CB9F8B5AFF3D5
:100BB0000080054600200C46102000BF0646A819FC
:100BC000A0420DD9324669460020AFF300800700ED
:100BD00008BF00F037F90098A04218BF0546C419B5
:100BE000FFF7C8FF05600746F01D20F00700461913
:100BF000284600F00AF8B44208BFF8BDA21B3146EF
:100C00003868BDE8F84000F0C9B800210160C0E9CB
:100C100001107047102070472DE9F0410446164638
:100C20000D464769007B80072ED03846FFF79BFDB5
:100C300050BB3EB3012E02D0022E25D104E0204647
:100C400000F0C6F805441DE03846FFF79AFDE1685C
:100C5000002841F01001E16005DA2046FFF736FE7A
:100C60000120BDE8F081C9030BD56268E16A9142B9
:100C700000D81146A26911442269891A814200DD17
:100C800008460544002D01DA0220EAE7E16A6068BF
:100C9000E268814206D29103E06203D522F400317A
:100CA00041F01002A6690027AE4213DCE16A8142DE
:100CB00001D90B4600E0034603EB060C2369ACEBBD
:100CC000030CAC4506DD814201D98C4600E0844628
:100CD0009C4505D1A760276042F02000A5620DE089
:100CE000AD1BE669AE1B8142A66000D90846C01A5A
:100CF000281A20605819606022F02000034908403B
:100D0000E060002084F84870ABE70000BFCFD7FF59
:100D1000002801D000F03CB87047000010B5014633
:100D200002A000F076F8012010BD000053494752A0
:100D3000545245443A2052656469726563743A209E
:100D400063616E2774206F70656E3A2000000000AA
:100D500010B5431C02E010F8011B71B18107FAD1F4
:100D60004FF0013202C88C1A8C4314EAC211F9D038
:100D7000C01A0A0603D0C01E10BDC01A10BD0A0456
:100D800001D0801E10BD0902FCD0401E10BD000025
:100D900001491820ABBEFEE726000200034640686A
:100DA0008C46002818BF88423CBF03464068F8D3F1
:100DB00018681844884207D00CF1030020F007009F
:100DC000001D411A521A0146081D0A60FFF733BD83
:100DD00010B50146C268900703D0900607D5886A0F
:100DE0000AE000F03DF801210160881E10BD8B690A
:100DF000486818440B69C01A91F848301BB191F843
:100E00004910401A10BD1103FCD50028FADD401E20
:100E100010BD70B505460C460A2000E06D1C00F0C0
:100E200018F835B128780028F8D102E0641C00F0E9
:100E300010F814B120780028F8D1BDE870400A20DD
:100E400000F007B810B500F00FF8BDE81040FFF74C
:100E50005FBF08B569468DF800000320ABBE08BD32
:100E6000004870470C01002010B5012805D0002172
:100E700003A0FFF7CEFF012010BD09A1F8E7000095
:100E800053494752544D454D3A204F7574206F6673
:100E90002068656170206D656D6F727900000000DB
:100EA0003A2048656170206D656D6F727920636FBF
:100EB0007272757074656400B0B540F60004C4F2D7
:100EC00001042046002100F07BF80138B0FA80F0E0
:100ED000450904F500600D2100F072F8002804F5C2
:100EE00080604FF0070108BF023500F069F8002864
:100EF00008BF04352846B0BDA0F18040A0F584307D
:100F00004FEAB020062884BF0020704705A151F8A1
:100F1000200041F21801C4F202010968084018BF1C
:100F200001207047040000000800000010000000CD
:100F300020000000400000008000000000010000D0
:100F4000F0B581B00C460F2921D81D46174606463C
:100F5000FFF7D2FF18B93046012100F03FF8E5B1A4
:100F60006FF01F0000EB8400082C38BFA0004FF08A
:100F70000F0128BF04363268814022EA0101316046
:100F800045EA8701326801FA00F010433060002022
:100F9000102C38BF012001B0F0BD032F08D0022F64
:100FA000DED10120F168A04021EA0000F060D7E71F
:100FB0000120F168A04008430227F060D0E700005C
:100FC0008068C84000F0010070470000D20708BFE9
:100FD0001031012202FA01F101617047A0F1804055
:100FE000A0F584304FEAB02081B1062855D8DFE85B
:100FF00000F004555E677079820041F21800C4F277
:101000000200016841F0040101607047062888BFB2
:101010007047DFE800F0040D161F28313A0041F256
:101020001800C4F20200016821F004010160704759
:1010300041F21800C4F20200016821F008010160C9
:10104000704741F21800C4F20200016821F010015B
:101050000160704741F21800C4F20200016821F0FB
:1010600020010160704741F21800C4F202000168DB
:1010700021F040010160704741F21800C4F2020003
:10108000016821F080010160704741F21800C4F24C
:101090000200016821F480710160704741F218007C
:1010A000C4F20200016841F008010160704741F29A
:1010B0001800C4F20200016841F01001016070479D
:1010C00041F21800C4F20200016841F02001016001
:1010D000704741F21800C4F20200016841F040017B
:1010E0000160704741F21800C4F20200016841F04B
:1010F00080010160704741F21800C4F202000168EB
:1011000041F480710160704708207047F0B581B0EC
:1011100041F214370026C0F6000700BF57F83640EA
:101120000121204607EBC605FFF758FF2D79204621
:1011300029460022FFF74AFF2046294600220223C3
:10114000FFF7FEFE0136082EE8D1002001B0F0BD09
:10115000072884BF4FF0FF30704780B541F214314B
:10116000C0F6000101EBC00251F8300011790122F4
:10117000FFF72CFF002080BD80B500F001F880BD96
:1011800082B041F204000021C4F2020001910091FA
:1011900050F8041C41F4803140F8041C50F8041C41
:1011A00001F400310091019901310191009919B9BF
:1011B0000199B1F5A06FF1D150F8041C890354BF17
:1011C0000021012100910099012936D142F200014C
:1011D000C4F202010A6842F010020A600A6822F0B2
:1011E00003020A600A6842F002020A6001680160B4
:1011F00001680160016841F480610160016821F4C7
:101200007C110160016841F4E811016050F8041C90
:1012100041F0807140F8041C50F8041C8901FBD592
:10122000016821F003010160016841F002010160E1
:10123000016801F00C010829FAD102B070470000E2
:1012400080B541F20000C4F202000168002241F0C2
:10125000010101604168CFF6FF0211404160016861
:101260004FF6FF72CFF6F66211400160016821F47B
:1012700080210160416821F4FE0141604FF41F01AB
:101280008160FFF779FF4EF60850CEF200004FF074
:101290000061016080BD00000BA0FFF71DF8FFF7A3
:1012A00035FFFFF731FF01460BA0FEF799FF00BFA6
:1012B000FFF702FE0028FBD00020FFF749FFFFF7F1
:1012C000FBFD0028F8D1F3E748656C6C6F20576F81
:1012D000726C6420000000004C454420436F756E22
:1012E00074203D202564200A200000008A68002A1E
:1012F00001DCFFF791B8521E8A604A68C0B2531CE5
:101300004B60107070473A7474003A7474003A7409
:10131000740000000018014008000000001801409F
:1013200009000000001801400A00000000180140F8
:101330000B000000001801400C00000000180140E4
:101340000D000000001801400E00000000180140D0
:101350000F000000781300080000002010000000BB
:101360002801000888130008100000206007000012
:101370004401000800000000000000000000000020
:08138000000000000000000065
:04000005080000ED02
:00000001FF
